{"abi":[{"type":"constructor","inputs":[{"name":"complianceGate_","type":"address","internalType":"address"},{"name":"feeDistributor_","type":"address","internalType":"address"}],"stateMutability":"nonpayable"},{"type":"function","name":"addCorridor","inputs":[{"name":"id","type":"bytes32","internalType":"bytes32"},{"name":"active","type":"bool","internalType":"bool"},{"name":"minAmount","type":"uint256","internalType":"uint256"},{"name":"maxAmount","type":"uint256","internalType":"uint256"},{"name":"exchangeRate","type":"uint256","internalType":"uint256"},{"name":"destinationCurrency","type":"string","internalType":"string"}],"outputs":[],"stateMutability":"nonpayable"},{"type":"function","name":"addSupportedToken","inputs":[{"name":"token","type":"address","internalType":"address"}],"outputs":[],"stateMutability":"nonpayable"},{"type":"function","name":"complianceGate","inputs":[],"outputs":[{"name":"","type":"address","internalType":"address"}],"stateMutability":"view"},{"type":"function","name":"corridors","inputs":[{"name":"","type":"bytes32","internalType":"bytes32"}],"outputs":[{"name":"active","type":"bool","internalType":"bool"},{"name":"minAmount","type":"uint256","internalType":"uint256"},{"name":"maxAmount","type":"uint256","internalType":"uint256"},{"name":"exchangeRate","type":"uint256","internalType":"uint256"},{"name":"destinationCurrency","type":"string","internalType":"string"}],"stateMutability":"view"},{"type":"function","name":"feeDistributor","inputs":[],"outputs":[{"name":"","type":"address","internalType":"address"}],"stateMutability":"view"},{"type":"function","name":"getCorridor","inputs":[{"name":"id","type":"bytes32","internalType":"bytes32"}],"outputs":[{"name":"","type":"tuple","internalType":"struct RemitCore.Corridor","components":[{"name":"active","type":"bool","internalType":"bool"},{"name":"minAmount","type":"uint256","internalType":"uint256"},{"name":"maxAmount","type":"uint256","internalType":"uint256"},{"name":"exchangeRate","type":"uint256","internalType":"uint256"},{"name":"destinationCurrency","type":"string","internalType":"string"}]}],"stateMutability":"view"},{"type":"function","name":"getQuote","inputs":[{"name":"corridorId","type":"bytes32","internalType":"bytes32"},{"name":"amountIn","type":"uint256","internalType":"uint256"},{"name":"","type":"address","internalType":"address"}],"outputs":[{"name":"fee","type":"uint256","internalType":"uint256"},{"name":"netAmount","type":"uint256","internalType":"uint256"},{"name":"amountOut","type":"uint256","internalType":"uint256"}],"stateMutability":"view"},{"type":"function","name":"getTransfer","inputs":[{"name":"id","type":"bytes32","internalType":"bytes32"}],"outputs":[{"name":"","type":"tuple","internalType":"struct RemitCore.Transfer","components":[{"name":"sender","type":"address","internalType":"address"},{"name":"token","type":"address","internalType":"address"},{"name":"corridorId","type":"bytes32","internalType":"bytes32"},{"name":"amountIn","type":"uint256","internalType":"uint256"},{"name":"amountOut","type":"uint256","internalType":"uint256"},{"name":"fee","type":"uint256","internalType":"uint256"},{"name":"timestamp","type":"uint256","internalType":"uint256"},{"name":"status","type":"uint8","internalType":"enum RemitCore.TransferStatus"}]}],"stateMutability":"view"},{"type":"function","name":"owner","inputs":[],"outputs":[{"name":"","type":"address","internalType":"address"}],"stateMutability":"view"},{"type":"function","name":"pause","inputs":[],"outputs":[],"stateMutability":"nonpayable"},{"type":"function","name":"paused","inputs":[],"outputs":[{"name":"","type":"bool","internalType":"bool"}],"stateMutability":"view"},{"type":"function","name":"removeSupportedToken","inputs":[{"name":"token","type":"address","internalType":"address"}],"outputs":[],"stateMutability":"nonpayable"},{"type":"function","name":"renounceOwnership","inputs":[],"outputs":[],"stateMutability":"nonpayable"},{"type":"function","name":"sendRemittance","inputs":[{"name":"token","type":"address","internalType":"address"},{"name":"corridorId","type":"bytes32","internalType":"bytes32"},{"name":"amountIn","type":"uint256","internalType":"uint256"},{"name":"recipient","type":"address","internalType":"address"},{"name":"transferId","type":"bytes32","internalType":"bytes32"}],"outputs":[{"name":"","type":"bytes32","internalType":"bytes32"}],"stateMutability":"nonpayable"},{"type":"function","name":"setComplianceGate","inputs":[{"name":"gate","type":"address","internalType":"address"}],"outputs":[],"stateMutability":"nonpayable"},{"type":"function","name":"setFeeDistributor","inputs":[{"name":"distributor","type":"address","internalType":"address"}],"outputs":[],"stateMutability":"nonpayable"},{"type":"function","name":"supportedTokens","inputs":[{"name":"","type":"address","internalType":"address"}],"outputs":[{"name":"","type":"bool","internalType":"bool"}],"stateMutability":"view"},{"type":"function","name":"transferNonce","inputs":[],"outputs":[{"name":"","type":"uint256","internalType":"uint256"}],"stateMutability":"view"},{"type":"function","name":"transferOwnership","inputs":[{"name":"newOwner","type":"address","internalType":"address"}],"outputs":[],"stateMutability":"nonpayable"},{"type":"function","name":"transfers","inputs":[{"name":"","type":"bytes32","internalType":"bytes32"}],"outputs":[{"name":"sender","type":"address","internalType":"address"},{"name":"token","type":"address","internalType":"address"},{"name":"corridorId","type":"bytes32","internalType":"bytes32"},{"name":"amountIn","type":"uint256","internalType":"uint256"},{"name":"amountOut","type":"uint256","internalType":"uint256"},{"name":"fee","type":"uint256","internalType":"uint256"},{"name":"timestamp","type":"uint256","internalType":"uint256"},{"name":"status","type":"uint8","internalType":"enum RemitCore.TransferStatus"}],"stateMutability":"view"},{"type":"function","name":"unpause","inputs":[],"outputs":[],"stateMutability":"nonpayable"},{"type":"function","name":"updateCorridor","inputs":[{"name":"id","type":"bytes32","internalType":"bytes32"},{"name":"active","type":"bool","internalType":"bool"},{"name":"exchangeRate","type":"uint256","internalType":"uint256"}],"outputs":[],"stateMutability":"nonpayable"},{"type":"event","name":"OwnershipTransferred","inputs":[{"name":"previousOwner","type":"address","indexed":true,"internalType":"address"},{"name":"newOwner","type":"address","indexed":true,"internalType":"address"}],"anonymous":false},{"type":"event","name":"Paused","inputs":[{"name":"account","type":"address","indexed":false,"internalType":"address"}],"anonymous":false},{"type":"event","name":"RemittanceSent","inputs":[{"name":"transferId","type":"bytes32","indexed":true,"internalType":"bytes32"},{"name":"sender","type":"address","indexed":true,"internalType":"address"},{"name":"recipient","type":"address","indexed":true,"internalType":"address"},{"name":"token","type":"address","indexed":false,"internalType":"address"},{"name":"amountIn","type":"uint256","indexed":false,"internalType":"uint256"},{"name":"amountOut","type":"uint256","indexed":false,"internalType":"uint256"},{"name":"fee","type":"uint256","indexed":false,"internalType":"uint256"},{"name":"corridorId","type":"bytes32","indexed":false,"internalType":"bytes32"}],"anonymous":false},{"type":"event","name":"Unpaused","inputs":[{"name":"account","type":"address","indexed":false,"internalType":"address"}],"anonymous":false},{"type":"error","name":"AmountOutOfRange","inputs":[]},{"type":"error","name":"CorridorNotActive","inputs":[]},{"type":"error","name":"EnforcedPause","inputs":[]},{"type":"error","name":"ExpectedPause","inputs":[]},{"type":"error","name":"NotCompliant","inputs":[]},{"type":"error","name":"OwnableInvalidOwner","inputs":[{"name":"owner","type":"address","internalType":"address"}]},{"type":"error","name":"OwnableUnauthorizedAccount","inputs":[{"name":"account","type":"address","internalType":"address"}]},{"type":"error","name":"ReentrancyGuardReentrantCall","inputs":[]},{"type":"error","name":"SafeERC20FailedOperation","inputs":[{"name":"token","type":"address","internalType":"address"}]},{"type":"error","name":"TokenNotSupported","inputs":[]},{"type":"error","name":"TransferIdExists","inputs":[]}],"bytecode":{"object":"0x608060405234801562000010575f80fd5b50604051620018b9380380620018b9833981016040819052620000339162000126565b33806200005957604051631e4fbdf760e01b81525f600482015260240160405180910390fd5b6200006481620000bb565b5060017f9b779b17422d0df92223018b32b4d1fa46e071723d6817e2486d003becc55f0055600180546001600160a01b039384166001600160a01b031991821617909155600280549290931691161790556200015c565b5f80546001600160a01b038381166001600160a01b0319831681178455604051919092169283917f8be0079c531659141344cd1fd0a4f28419497f9722a3daafe3b4186f6b6457e09190a35050565b80516001600160a01b038116811462000121575f80fd5b919050565b5f806040838503121562000138575f80fd5b62000143836200010a565b915062000153602084016200010a565b90509250929050565b61174f806200016a5f395ff3fe608060405234801561000f575f80fd5b506004361061013d575f3560e01c806376319190116100b4578063b8ed12a411610079578063b8ed12a41461031f578063c0b1eaea14610328578063ccfc2e8d1461033b578063d14ea3e31461034e578063ee3651c514610361578063f2fde38b1461038f575f80fd5b806376319190146102bd5780638456cb59146102d05780638da5cb5b146102d85780639f27556a146102e8578063b3e2602f146102fb575f80fd5b8063466baaa211610105578063466baaa2146102305780635c975abb1461025057806368c4ac261461026d5780636d69fcaf1461028f578063715018a6146102a25780637458cdfb146102aa575f80fd5b80630d43e8ad14610141578063243246e714610171578063260958a5146101925780633c64f04b146101b25780633f4ba83a14610226575b5f80fd5b600254610154906001600160a01b031681565b6040516001600160a01b0390911681526020015b60405180910390f35b61018461017f3660046111bf565b6103a2565b604051908152602001610168565b6101a56101a0366004611209565b6108e5565b6040516101689190611254565b6102126101c0366004611209565b600460208190525f9182526040909120805460018201546002830154600384015494840154600585015460068601546007909601546001600160a01b0395861697949095169592949192909160ff1688565b6040516101689897969594939291906112c1565b61022e6109cc565b005b61024361023e366004611209565b6109de565b604051610168919061135a565b5f54600160a01b900460ff165b6040519015158152602001610168565b61025d61027b3660046113a6565b60056020525f908152604090205460ff1681565b61022e61029d3660046113a6565b610af0565b61022e610b1b565b600154610154906001600160a01b031681565b61022e6102cb3660046113a6565b610b2c565b61022e610b54565b5f546001600160a01b0316610154565b61022e6102f63660046113d3565b610b64565b61030e610309366004611209565b610c24565b604051610168959493929190611476565b61018460065481565b61022e6103363660046113a6565b610ce1565b61022e6103493660046113a6565b610d0b565b61022e61035c3660046114ad565b610d35565b61037461036f3660046114e2565b610d61565b60408051938452602084019290925290820152606001610168565b61022e61039d3660046113a6565b610ee5565b5f6103ab610f27565b6103b3610f55565b6001600160a01b0386165f9081526005602052604090205460ff166103eb57604051633dd1b30560e01b815260040160405180910390fd5b5f8581526003602052604090205460ff16610419576040516309380e0b60e01b815260040160405180910390fd5b60015460405163acf0279f60e01b81523360048201526001600160a01b039091169063acf0279f90602401602060405180830381865afa15801561045f573d5f803e3d5ffd5b505050506040513d601f19601f820116820180604052508101906104839190611514565b6104a057604051637928610360e01b815260040160405180910390fd5b60015460405163acf0279f60e01b81526001600160a01b0385811660048301529091169063acf0279f90602401602060405180830381865afa1580156104e8573d5f803e3d5ffd5b505050506040513d601f19601f8201168201806040525081019061050c9190611514565b61052957604051637928610360e01b815260040160405180910390fd5b5f8581526003602052604090206001015484108061055657505f8581526003602052604090206002015484115b156105745760405163c64200e960e01b815260040160405180910390fd5b5f828152600460205260409020546001600160a01b0316156105a95760405163f27ca7e560e01b815260040160405180910390fd5b6002546040516399a5d74760e01b8152600481018690525f916001600160a01b0316906399a5d74790602401602060405180830381865afa1580156105f0573d5f803e3d5ffd5b505050506040513d601f19601f82011682018060405250810190610614919061152f565b5f8781526003602081905260408220015491925090620f424090610638848961155a565b6106429190611573565b61064c919061158a565b90506106636001600160a01b038916333089610f7f565b60025460405163095ea7b360e01b81526001600160a01b039182166004820152602481018490529089169063095ea7b3906044016020604051808303815f875af11580156106b3573d5f803e3d5ffd5b505050506040513d601f19601f820116820180604052508101906106d79190611514565b5060025460405163448e520f60e01b81526001600160a01b038a81166004830152602482018590529091169063448e520f906044015f604051808303815f87803b158015610723575f80fd5b505af1158015610735573d5f803e3d5ffd5b50505050604051806101000160405280336001600160a01b03168152602001896001600160a01b031681526020018881526020018781526020018281526020018381526020014281526020016001600281111561079457610794611220565b90525f85815260046020818152604092839020845181546001600160a01b039182166001600160a01b031991821617835592860151600180840180549290931691909416179055928401516002808501919091556060850151600385015560808501519284019290925560a0840151600584015560c0840151600684015560e08401516007840180549193909260ff199092169190849081111561083a5761083a611220565b0217905550506006805491505f610850836115a9565b9091555050604080516001600160a01b038a8116825260208201899052918101839052606081018490526080810189905290861690339086907f37d058a66eb5d842de8b709e033ef9960c358678772db982b7a7526dc4a80c269060a00160405180910390a4505060017f9b779b17422d0df92223018b32b4d1fa46e071723d6817e2486d003becc55f005550949350505050565b61092960408051610100810182525f80825260208201819052918101829052606081018290526080810182905260a0810182905260c081018290529060e082015290565b5f8281526004602081815260409283902083516101008101855281546001600160a01b039081168252600183015416928101929092526002808201549483019490945260038101546060830152918201546080820152600582015460a0820152600682015460c08201526007820154909260e084019160ff16908111156109b2576109b2611220565b60028111156109c3576109c3611220565b90525092915050565b6109d4610fbb565b6109dc610fe7565b565b610a0e6040518060a001604052805f151581526020015f81526020015f81526020015f8152602001606081525090565b5f82815260036020818152604092839020835160a081018552815460ff1615158152600182015492810192909252600281015493820193909352908201546060820152600482018054919291608084019190610a69906115c1565b80601f0160208091040260200160405190810160405280929190818152602001828054610a95906115c1565b8015610ae05780601f10610ab757610100808354040283529160200191610ae0565b820191905f5260205f20905b815481529060010190602001808311610ac357829003601f168201915b5050505050815250509050919050565b610af8610fbb565b6001600160a01b03165f908152600560205260409020805460ff19166001179055565b610b23610fbb565b6109dc5f61103b565b610b34610fbb565b6001600160a01b03165f908152600560205260409020805460ff19169055565b610b5c610fbb565b6109dc61108a565b610b6c610fbb565b6040518060a00160405280871515815260200186815260200185815260200184815260200183838080601f0160208091040260200160405190810160405280939291908181526020018383808284375f920182905250939094525050898152600360208181526040928390208551815460ff191690151517815590850151600182015591840151600283015560608401519082015560808301519091506004820190610c189082611659565b50505050505050505050565b600360208190525f91825260409091208054600182015460028301549383015460048401805460ff9094169592949293919291610c60906115c1565b80601f0160208091040260200160405190810160405280929190818152602001828054610c8c906115c1565b8015610cd75780601f10610cae57610100808354040283529160200191610cd7565b820191905f5260205f20905b815481529060010190602001808311610cba57829003601f168201915b5050505050905085565b610ce9610fbb565b600180546001600160a01b0319166001600160a01b0392909216919091179055565b610d13610fbb565b600280546001600160a01b0319166001600160a01b0392909216919091179055565b610d3d610fbb565b5f928352600360208190526040909320805460ff1916921515929092178255910155565b5f838152600360208181526040808420815160a081018352815460ff16151581526001820154938101939093526002810154918301919091529182015460608201526004820180548493849384939092608084019190610dc0906115c1565b80601f0160208091040260200160405190810160405280929190818152602001828054610dec906115c1565b8015610e375780601f10610e0e57610100808354040283529160200191610e37565b820191905f5260205f20905b815481529060010190602001808311610e1a57829003601f168201915b5050509190925250506002546040516399a5d74760e01b8152600481018a90529293506001600160a01b0316916399a5d7479150602401602060405180830381865afa158015610e89573d5f803e3d5ffd5b505050506040513d601f19601f82011682018060405250810190610ead919061152f565b9350610eb9848761155a565b9250620f4240816060015184610ecf9190611573565b610ed9919061158a565b91505093509350939050565b610eed610fbb565b6001600160a01b038116610f1b57604051631e4fbdf760e01b81525f60048201526024015b60405180910390fd5b610f248161103b565b50565b610f2f6110cc565b60027f9b779b17422d0df92223018b32b4d1fa46e071723d6817e2486d003becc55f0055565b5f54600160a01b900460ff16156109dc5760405163d93c066560e01b815260040160405180910390fd5b610f8d84848484600161110e565b610fb557604051635274afe760e01b81526001600160a01b0385166004820152602401610f12565b50505050565b5f546001600160a01b031633146109dc5760405163118cdaa760e01b8152336004820152602401610f12565b610fef61117b565b5f805460ff60a01b191690557f5db9ee0a495bf2e6ff9c91a7834c1ba4fdd244a5e8aa4e537bd38aeae4b073aa335b6040516001600160a01b03909116815260200160405180910390a1565b5f80546001600160a01b038381166001600160a01b0319831681178455604051919092169283917f8be0079c531659141344cd1fd0a4f28419497f9722a3daafe3b4186f6b6457e09190a35050565b611092610f55565b5f805460ff60a01b1916600160a01b1790557f62e78cea01bee320cd4e420270b5ea74000d11b0c9f74754ebdbfc544b05a25861101e3390565b7f9b779b17422d0df92223018b32b4d1fa46e071723d6817e2486d003becc55f00546002036109dc57604051633ee5aeb560e01b815260040160405180910390fd5b6040516323b872dd60e01b5f8181526001600160a01b038781166004528616602452604485905291602083606481808c5af1925060015f5114831661116a57838315161561115e573d5f823e3d81fd5b5f883b113d1516831692505b604052505f60605295945050505050565b5f54600160a01b900460ff166109dc57604051638dfc202b60e01b815260040160405180910390fd5b80356001600160a01b03811681146111ba575f80fd5b919050565b5f805f805f60a086880312156111d3575f80fd5b6111dc866111a4565b945060208601359350604086013592506111f8606087016111a4565b949793965091946080013592915050565b5f60208284031215611219575f80fd5b5035919050565b634e487b7160e01b5f52602160045260245ffd5b6003811061125057634e487b7160e01b5f52602160045260245ffd5b9052565b5f6101008201905060018060a01b038084511683528060208501511660208401525060408301516040830152606083015160608301526080830151608083015260a083015160a083015260c083015160c083015260e08301516112ba60e0840182611234565b5092915050565b6001600160a01b0389811682528816602082015260408101879052606081018690526080810185905260a0810184905260c08101839052610100810161130a60e0830184611234565b9998505050505050505050565b5f81518084525f5b8181101561133b5760208185018101518683018201520161131f565b505f602082860101526020601f19601f83011685010191505092915050565b602081528151151560208201526020820151604082015260408201516060820152606082015160808201525f608083015160a08084015261139e60c0840182611317565b949350505050565b5f602082840312156113b6575f80fd5b6113bf826111a4565b9392505050565b8015158114610f24575f80fd5b5f805f805f805f60c0888a0312156113e9575f80fd5b8735965060208801356113fb816113c6565b955060408801359450606088013593506080880135925060a088013567ffffffffffffffff8082111561142c575f80fd5b818a0191508a601f83011261143f575f80fd5b81358181111561144d575f80fd5b8b602082850101111561145e575f80fd5b60208301945080935050505092959891949750929550565b851515815284602082015283604082015282606082015260a060808201525f6114a260a0830184611317565b979650505050505050565b5f805f606084860312156114bf575f80fd5b8335925060208401356114d1816113c6565b929592945050506040919091013590565b5f805f606084860312156114f4575f80fd5b833592506020840135915061150b604085016111a4565b90509250925092565b5f60208284031215611524575f80fd5b81516113bf816113c6565b5f6020828403121561153f575f80fd5b5051919050565b634e487b7160e01b5f52601160045260245ffd5b8181038181111561156d5761156d611546565b92915050565b808202811582820484141761156d5761156d611546565b5f826115a457634e487b7160e01b5f52601260045260245ffd5b500490565b5f600182016115ba576115ba611546565b5060010190565b600181811c908216806115d557607f821691505b6020821081036115f357634e487b7160e01b5f52602260045260245ffd5b50919050565b634e487b7160e01b5f52604160045260245ffd5b601f82111561165457805f5260205f20601f840160051c810160208510156116325750805b601f840160051c820191505b81811015611651575f815560010161163e565b50505b505050565b815167ffffffffffffffff811115611673576116736115f9565b6116878161168184546115c1565b8461160d565b602080601f8311600181146116ba575f84156116a35750858301515b5f19600386901b1c1916600185901b178555611711565b5f85815260208120601f198616915b828110156116e8578886015182559484019460019091019084016116c9565b508582101561170557878501515f19600388901b60f8161c191681555b505060018460011b0185555b50505050505056fea26469706673582212204b82b91846010ae8ddb4d59379a84a2ce5f35cef6a3e6bf04b9306d0564e762264736f6c63430008180033","linkReferences":{}},"methodIdentifiers":{"addCorridor(bytes32,bool,uint256,uint256,uint256,string)":"9f27556a","addSupportedToken(address)":"6d69fcaf","complianceGate()":"7458cdfb","corridors(bytes32)":"b3e2602f","feeDistributor()":"0d43e8ad","getCorridor(bytes32)":"466baaa2","getQuote(bytes32,uint256,address)":"ee3651c5","getTransfer(bytes32)":"260958a5","owner()":"8da5cb5b","pause()":"8456cb59","paused()":"5c975abb","removeSupportedToken(address)":"76319190","renounceOwnership()":"715018a6","sendRemittance(address,bytes32,uint256,address,bytes32)":"243246e7","setComplianceGate(address)":"c0b1eaea","setFeeDistributor(address)":"ccfc2e8d","supportedTokens(address)":"68c4ac26","transferNonce()":"b8ed12a4","transferOwnership(address)":"f2fde38b","transfers(bytes32)":"3c64f04b","unpause()":"3f4ba83a","updateCorridor(bytes32,bool,uint256)":"d14ea3e3"},"id":47}