{"abi":[{"type":"constructor","inputs":[],"stateMutability":"nonpayable"},{"type":"function","name":"DEFAULT_ADMIN_ROLE","inputs":[],"outputs":[{"name":"","type":"bytes32","internalType":"bytes32"}],"stateMutability":"view"},{"type":"function","name":"KYC_OPERATOR_ROLE","inputs":[],"outputs":[{"name":"","type":"bytes32","internalType":"bytes32"}],"stateMutability":"view"},{"type":"function","name":"PAUSER_ROLE","inputs":[],"outputs":[{"name":"","type":"bytes32","internalType":"bytes32"}],"stateMutability":"view"},{"type":"function","name":"approveKyc","inputs":[{"name":"user","type":"address","internalType":"address"}],"outputs":[],"stateMutability":"nonpayable"},{"type":"function","name":"blacklist","inputs":[{"name":"user","type":"address","internalType":"address"}],"outputs":[],"stateMutability":"nonpayable"},{"type":"function","name":"blacklisted","inputs":[{"name":"","type":"address","internalType":"address"}],"outputs":[{"name":"","type":"bool","internalType":"bool"}],"stateMutability":"view"},{"type":"function","name":"canTransact","inputs":[{"name":"user","type":"address","internalType":"address"}],"outputs":[{"name":"","type":"bool","internalType":"bool"}],"stateMutability":"view"},{"type":"function","name":"getRoleAdmin","inputs":[{"name":"role","type":"bytes32","internalType":"bytes32"}],"outputs":[{"name":"","type":"bytes32","internalType":"bytes32"}],"stateMutability":"view"},{"type":"function","name":"grantRole","inputs":[{"name":"role","type":"bytes32","internalType":"bytes32"},{"name":"account","type":"address","internalType":"address"}],"outputs":[],"stateMutability":"nonpayable"},{"type":"function","name":"hasRole","inputs":[{"name":"role","type":"bytes32","internalType":"bytes32"},{"name":"account","type":"address","internalType":"address"}],"outputs":[{"name":"","type":"bool","internalType":"bool"}],"stateMutability":"view"},{"type":"function","name":"kycApproved","inputs":[{"name":"","type":"address","internalType":"address"}],"outputs":[{"name":"","type":"bool","internalType":"bool"}],"stateMutability":"view"},{"type":"function","name":"kycRequired","inputs":[],"outputs":[{"name":"","type":"bool","internalType":"bool"}],"stateMutability":"view"},{"type":"function","name":"pause","inputs":[],"outputs":[],"stateMutability":"nonpayable"},{"type":"function","name":"paused","inputs":[],"outputs":[{"name":"","type":"bool","internalType":"bool"}],"stateMutability":"view"},{"type":"function","name":"renounceRole","inputs":[{"name":"role","type":"bytes32","internalType":"bytes32"},{"name":"callerConfirmation","type":"address","internalType":"address"}],"outputs":[],"stateMutability":"nonpayable"},{"type":"function","name":"revokeKyc","inputs":[{"name":"user","type":"address","internalType":"address"}],"outputs":[],"stateMutability":"nonpayable"},{"type":"function","name":"revokeRole","inputs":[{"name":"role","type":"bytes32","internalType":"bytes32"},{"name":"account","type":"address","internalType":"address"}],"outputs":[],"stateMutability":"nonpayable"},{"type":"function","name":"setKycRequired","inputs":[{"name":"required","type":"bool","internalType":"bool"}],"outputs":[],"stateMutability":"nonpayable"},{"type":"function","name":"supportsInterface","inputs":[{"name":"interfaceId","type":"bytes4","internalType":"bytes4"}],"outputs":[{"name":"","type":"bool","internalType":"bool"}],"stateMutability":"view"},{"type":"function","name":"unblacklist","inputs":[{"name":"user","type":"address","internalType":"address"}],"outputs":[],"stateMutability":"nonpayable"},{"type":"function","name":"unpause","inputs":[],"outputs":[],"stateMutability":"nonpayable"},{"type":"event","name":"Blacklisted","inputs":[{"name":"user","type":"address","indexed":true,"internalType":"address"}],"anonymous":false},{"type":"event","name":"KYCApproved","inputs":[{"name":"user","type":"address","indexed":true,"internalType":"address"}],"anonymous":false},{"type":"event","name":"KYCRevoked","inputs":[{"name":"user","type":"address","indexed":true,"internalType":"address"}],"anonymous":false},{"type":"event","name":"Paused","inputs":[{"name":"account","type":"address","indexed":false,"internalType":"address"}],"anonymous":false},{"type":"event","name":"RoleAdminChanged","inputs":[{"name":"role","type":"bytes32","indexed":true,"internalType":"bytes32"},{"name":"previousAdminRole","type":"bytes32","indexed":true,"internalType":"bytes32"},{"name":"newAdminRole","type":"bytes32","indexed":true,"internalType":"bytes32"}],"anonymous":false},{"type":"event","name":"RoleGranted","inputs":[{"name":"role","type":"bytes32","indexed":true,"internalType":"bytes32"},{"name":"account","type":"address","indexed":true,"internalType":"address"},{"name":"sender","type":"address","indexed":true,"internalType":"address"}],"anonymous":false},{"type":"event","name":"RoleRevoked","inputs":[{"name":"role","type":"bytes32","indexed":true,"internalType":"bytes32"},{"name":"account","type":"address","indexed":true,"internalType":"address"},{"name":"sender","type":"address","indexed":true,"internalType":"address"}],"anonymous":false},{"type":"event","name":"Unblacklisted","inputs":[{"name":"user","type":"address","indexed":true,"internalType":"address"}],"anonymous":false},{"type":"event","name":"Unpaused","inputs":[{"name":"account","type":"address","indexed":false,"internalType":"address"}],"anonymous":false},{"type":"error","name":"AccessControlBadConfirmation","inputs":[]},{"type":"error","name":"AccessControlUnauthorizedAccount","inputs":[{"name":"account","type":"address","internalType":"address"},{"name":"neededRole","type":"bytes32","internalType":"bytes32"}]},{"type":"error","name":"EnforcedPause","inputs":[]},{"type":"error","name":"ExpectedPause","inputs":[]}],"bytecode":{"object":"0x608060405234801561000f575f80fd5b5061001a5f33610076565b506100457f65d7a28e3265b37a6474929f336521b332c1681b933f6cb9f3376673440d862a33610076565b506100707fdf54a8fce50b9de7187b8b9daaa3b95e6ef1bf1df5fe0a03ddea8faa73de2a1033610076565b5061011f565b5f828152602081815260408083206001600160a01b038516845290915281205460ff16610116575f838152602081815260408083206001600160a01b03861684529091529020805460ff191660011790556100ce3390565b6001600160a01b0316826001600160a01b0316847f2f8788117e7eff1d82e926ec794901d17c78024a50270940304540a733656f0d60405160405180910390a4506001610119565b505f5b92915050565b61098d8061012c5f395ff3fe608060405234801561000f575f80fd5b5060043610610132575f3560e01c8063784cb314116100b4578063b969909111610079578063b96990911461026c578063bdb56d7114610279578063d547741f1461028d578063dbac26e9146102a0578063e63ab1e9146102c2578063f9f92be4146102e9575f80fd5b8063784cb314146102245780638456cb591461023757806391d148541461023f578063a217fddf14610252578063acf0279f14610259575f80fd5b806336568abe116100fa57806336568abe146101c95780633f4ba83a146101dc5780635c975abb146101e45780636641cc64146101ef57806375e3661e14610211575f80fd5b806301ffc9a714610136578063122831911461015e578063150909f714610173578063248a9ca3146101865780632f2ff15d146101b6575b5f80fd5b610149610144366004610875565b6102fc565b60405190151581526020015b60405180910390f35b61017161016c3660046108be565b610332565b005b6101716101813660046108d7565b610392565b6101a86101943660046108f6565b5f9081526020819052604090206001015490565b604051908152602001610155565b6101716101c436600461090d565b6103b0565b6101716101d736600461090d565b6103da565b610171610412565b60015460ff16610149565b6101496101fd3660046108be565b60026020525f908152604090205460ff1681565b61017161021f3660046108be565b610447565b6101716102323660046108be565b6104a7565b61017161050a565b61014961024d36600461090d565b61053c565b6101a85f81565b6101496102673660046108be565b610564565b6004546101499060ff1681565b6101a85f8051602061093883398151915281565b61017161029b36600461090d565b6105d5565b6101496102ae3660046108be565b60036020525f908152604090205460ff1681565b6101a87f65d7a28e3265b37a6474929f336521b332c1681b933f6cb9f3376673440d862a81565b6101716102f73660046108be565b6105f9565b5f6001600160e01b03198216637965db0b60e01b148061032c57506301ffc9a760e01b6001600160e01b03198316145b92915050565b5f805160206109388339815191526103498161065c565b6001600160a01b0382165f81815260026020526040808220805460ff19169055517ffb4ca6a2470de95e9f648557fae63380f22c4b760bd27b0571caf5977a30278a9190a25050565b5f61039c8161065c565b506004805460ff1916911515919091179055565b5f828152602081905260409020600101546103ca8161065c565b6103d48383610666565b50505050565b6001600160a01b03811633146104035760405163334bd91960e11b815260040160405180910390fd5b61040d82826106f5565b505050565b7f65d7a28e3265b37a6474929f336521b332c1681b933f6cb9f3376673440d862a61043c8161065c565b61044461075e565b50565b5f8051602061093883398151915261045e8161065c565b6001600160a01b0382165f81815260036020526040808220805460ff19169055517f7534c63860313c46c473e4e98328f37017e9674e2162faf1a3ad7a96236c3b7b9190a25050565b5f805160206109388339815191526104be8161065c565b6001600160a01b0382165f81815260026020526040808220805460ff19166001179055517f333bb19eeef0621b32888db778cc7a481a89fc1d59adb2cecb59b40ef048941e9190a25050565b7f65d7a28e3265b37a6474929f336521b332c1681b933f6cb9f3376673440d862a6105348161065c565b6104446107b0565b5f918252602082815260408084206001600160a01b0393909316845291905290205460ff1690565b5f61057160015460ff1690565b1561057d57505f919050565b6001600160a01b0382165f9081526003602052604090205460ff16156105a457505f919050565b60045460ff16156105cd57506001600160a01b03165f9081526002602052604090205460ff1690565b506001919050565b5f828152602081905260409020600101546105ef8161065c565b6103d483836106f5565b5f805160206109388339815191526106108161065c565b6001600160a01b0382165f81815260036020526040808220805460ff19166001179055517fffa4e6181777692565cf28528fc88fd1516ea86b56da075235fa575af6a4b8559190a25050565b61044481336107eb565b5f610671838361053c565b6106ee575f838152602081815260408083206001600160a01b03861684529091529020805460ff191660011790556106a63390565b6001600160a01b0316826001600160a01b0316847f2f8788117e7eff1d82e926ec794901d17c78024a50270940304540a733656f0d60405160405180910390a450600161032c565b505f61032c565b5f610700838361053c565b156106ee575f838152602081815260408083206001600160a01b0386168085529252808320805460ff1916905551339286917ff6391f5c32d9c69d2a47ea670b442974b53935d1edc7fd64eb21e047a839171b9190a450600161032c565b61076661082c565b6001805460ff191690557f5db9ee0a495bf2e6ff9c91a7834c1ba4fdd244a5e8aa4e537bd38aeae4b073aa335b6040516001600160a01b03909116815260200160405180910390a1565b6107b8610851565b6001805460ff1916811790557f62e78cea01bee320cd4e420270b5ea74000d11b0c9f74754ebdbfc544b05a25833610793565b6107f5828261053c565b6108285760405163e2517d3f60e01b81526001600160a01b03821660048201526024810183905260440160405180910390fd5b5050565b60015460ff1661084f57604051638dfc202b60e01b815260040160405180910390fd5b565b60015460ff161561084f5760405163d93c066560e01b815260040160405180910390fd5b5f60208284031215610885575f80fd5b81356001600160e01b03198116811461089c575f80fd5b9392505050565b80356001600160a01b03811681146108b9575f80fd5b919050565b5f602082840312156108ce575f80fd5b61089c826108a3565b5f602082840312156108e7575f80fd5b8135801515811461089c575f80fd5b5f60208284031215610906575f80fd5b5035919050565b5f806040838503121561091e575f80fd5b8235915061092e602084016108a3565b9050925092905056fedf54a8fce50b9de7187b8b9daaa3b95e6ef1bf1df5fe0a03ddea8faa73de2a10a2646970667358221220c2f5139424979ec35ac20a91894c4af9bb729c1d26a0c3723c7a5a1ab750df6864736f6c63430008180033","linkReferences":{}},"methodIdentifiers":{"DEFAULT_ADMIN_ROLE()":"a217fddf","KYC_OPERATOR_ROLE()":"bdb56d71","PAUSER_ROLE()":"e63ab1e9","approveKyc(address)":"784cb314","blacklist(address)":"f9f92be4","blacklisted(address)":"dbac26e9","canTransact(address)":"acf0279f","getRoleAdmin(bytes32)":"248a9ca3","grantRole(bytes32,address)":"2f2ff15d","hasRole(bytes32,address)":"91d14854","kycApproved(address)":"6641cc64","kycRequired()":"b9699091","pause()":"8456cb59","paused()":"5c975abb","renounceRole(bytes32,address)":"36568abe","revokeKyc(address)":"12283191","revokeRole(bytes32,address)":"d547741f","setKycRequired(bool)":"150909f7","supportsInterface(bytes4)":"01ffc9a7","unblacklist(address)":"75e3661e","unpause()":"3f4ba83a"},"id":42}