{"abi":[{"type":"constructor","inputs":[{"name":"asset_","type":"address","internalType":"address"}],"stateMutability":"nonpayable"},{"type":"function","name":"allowance","inputs":[{"name":"owner","type":"address","internalType":"address"},{"name":"spender","type":"address","internalType":"address"}],"outputs":[{"name":"","type":"uint256","internalType":"uint256"}],"stateMutability":"view"},{"type":"function","name":"approve","inputs":[{"name":"spender","type":"address","internalType":"address"},{"name":"value","type":"uint256","internalType":"uint256"}],"outputs":[{"name":"","type":"bool","internalType":"bool"}],"stateMutability":"nonpayable"},{"type":"function","name":"asset","inputs":[],"outputs":[{"name":"","type":"address","internalType":"address"}],"stateMutability":"view"},{"type":"function","name":"balanceOf","inputs":[{"name":"account","type":"address","internalType":"address"}],"outputs":[{"name":"","type":"uint256","internalType":"uint256"}],"stateMutability":"view"},{"type":"function","name":"collectFees","inputs":[{"name":"amount","type":"uint256","internalType":"uint256"}],"outputs":[],"stateMutability":"nonpayable"},{"type":"function","name":"complianceGate","inputs":[],"outputs":[{"name":"","type":"address","internalType":"address"}],"stateMutability":"view"},{"type":"function","name":"convertToAssets","inputs":[{"name":"shares","type":"uint256","internalType":"uint256"}],"outputs":[{"name":"","type":"uint256","internalType":"uint256"}],"stateMutability":"view"},{"type":"function","name":"convertToShares","inputs":[{"name":"assets","type":"uint256","internalType":"uint256"}],"outputs":[{"name":"","type":"uint256","internalType":"uint256"}],"stateMutability":"view"},{"type":"function","name":"decimals","inputs":[],"outputs":[{"name":"","type":"uint8","internalType":"uint8"}],"stateMutability":"view"},{"type":"function","name":"deposit","inputs":[{"name":"assets","type":"uint256","internalType":"uint256"},{"name":"receiver","type":"address","internalType":"address"}],"outputs":[{"name":"","type":"uint256","internalType":"uint256"}],"stateMutability":"nonpayable"},{"type":"function","name":"getPoolStats","inputs":[],"outputs":[{"name":"totalAssets_","type":"uint256","internalType":"uint256"},{"name":"totalShares","type":"uint256","internalType":"uint256"},{"name":"feesCollected","type":"uint256","internalType":"uint256"}],"stateMutability":"view"},{"type":"function","name":"maxDeposit","inputs":[{"name":"","type":"address","internalType":"address"}],"outputs":[{"name":"","type":"uint256","internalType":"uint256"}],"stateMutability":"view"},{"type":"function","name":"maxMint","inputs":[{"name":"","type":"address","internalType":"address"}],"outputs":[{"name":"","type":"uint256","internalType":"uint256"}],"stateMutability":"view"},{"type":"function","name":"maxRedeem","inputs":[{"name":"owner","type":"address","internalType":"address"}],"outputs":[{"name":"","type":"uint256","internalType":"uint256"}],"stateMutability":"view"},{"type":"function","name":"maxWithdraw","inputs":[{"name":"owner","type":"address","internalType":"address"}],"outputs":[{"name":"","type":"uint256","internalType":"uint256"}],"stateMutability":"view"},{"type":"function","name":"mint","inputs":[{"name":"shares","type":"uint256","internalType":"uint256"},{"name":"receiver","type":"address","internalType":"address"}],"outputs":[{"name":"","type":"uint256","internalType":"uint256"}],"stateMutability":"nonpayable"},{"type":"function","name":"name","inputs":[],"outputs":[{"name":"","type":"string","internalType":"string"}],"stateMutability":"view"},{"type":"function","name":"owner","inputs":[],"outputs":[{"name":"","type":"address","internalType":"address"}],"stateMutability":"view"},{"type":"function","name":"pause","inputs":[],"outputs":[],"stateMutability":"nonpayable"},{"type":"function","name":"paused","inputs":[],"outputs":[{"name":"","type":"bool","internalType":"bool"}],"stateMutability":"view"},{"type":"function","name":"previewDeposit","inputs":[{"name":"assets","type":"uint256","internalType":"uint256"}],"outputs":[{"name":"","type":"uint256","internalType":"uint256"}],"stateMutability":"view"},{"type":"function","name":"previewMint","inputs":[{"name":"shares","type":"uint256","internalType":"uint256"}],"outputs":[{"name":"","type":"uint256","internalType":"uint256"}],"stateMutability":"view"},{"type":"function","name":"previewRedeem","inputs":[{"name":"shares","type":"uint256","internalType":"uint256"}],"outputs":[{"name":"","type":"uint256","internalType":"uint256"}],"stateMutability":"view"},{"type":"function","name":"previewWithdraw","inputs":[{"name":"assets","type":"uint256","internalType":"uint256"}],"outputs":[{"name":"","type":"uint256","internalType":"uint256"}],"stateMutability":"view"},{"type":"function","name":"redeem","inputs":[{"name":"shares","type":"uint256","internalType":"uint256"},{"name":"receiver","type":"address","internalType":"address"},{"name":"owner","type":"address","internalType":"address"}],"outputs":[{"name":"","type":"uint256","internalType":"uint256"}],"stateMutability":"nonpayable"},{"type":"function","name":"renounceOwnership","inputs":[],"outputs":[],"stateMutability":"nonpayable"},{"type":"function","name":"setComplianceGate","inputs":[{"name":"gate","type":"address","internalType":"address"}],"outputs":[],"stateMutability":"nonpayable"},{"type":"function","name":"symbol","inputs":[],"outputs":[{"name":"","type":"string","internalType":"string"}],"stateMutability":"view"},{"type":"function","name":"totalAssets","inputs":[],"outputs":[{"name":"","type":"uint256","internalType":"uint256"}],"stateMutability":"view"},{"type":"function","name":"totalFeesCollected","inputs":[],"outputs":[{"name":"","type":"uint256","internalType":"uint256"}],"stateMutability":"view"},{"type":"function","name":"totalSupply","inputs":[],"outputs":[{"name":"","type":"uint256","internalType":"uint256"}],"stateMutability":"view"},{"type":"function","name":"transfer","inputs":[{"name":"to","type":"address","internalType":"address"},{"name":"value","type":"uint256","internalType":"uint256"}],"outputs":[{"name":"","type":"bool","internalType":"bool"}],"stateMutability":"nonpayable"},{"type":"function","name":"transferFrom","inputs":[{"name":"from","type":"address","internalType":"address"},{"name":"to","type":"address","internalType":"address"},{"name":"value","type":"uint256","internalType":"uint256"}],"outputs":[{"name":"","type":"bool","internalType":"bool"}],"stateMutability":"nonpayable"},{"type":"function","name":"transferOwnership","inputs":[{"name":"newOwner","type":"address","internalType":"address"}],"outputs":[],"stateMutability":"nonpayable"},{"type":"function","name":"unpause","inputs":[],"outputs":[],"stateMutability":"nonpayable"},{"type":"function","name":"userDeposits","inputs":[{"name":"","type":"address","internalType":"address"}],"outputs":[{"name":"","type":"uint256","internalType":"uint256"}],"stateMutability":"view"},{"type":"function","name":"withdraw","inputs":[{"name":"assets","type":"uint256","internalType":"uint256"},{"name":"receiver","type":"address","internalType":"address"},{"name":"owner_","type":"address","internalType":"address"}],"outputs":[{"name":"","type":"uint256","internalType":"uint256"}],"stateMutability":"nonpayable"},{"type":"event","name":"Approval","inputs":[{"name":"owner","type":"address","indexed":true,"internalType":"address"},{"name":"spender","type":"address","indexed":true,"internalType":"address"},{"name":"value","type":"uint256","indexed":false,"internalType":"uint256"}],"anonymous":false},{"type":"event","name":"Deposit","inputs":[{"name":"sender","type":"address","indexed":true,"internalType":"address"},{"name":"owner","type":"address","indexed":true,"internalType":"address"},{"name":"assets","type":"uint256","indexed":false,"internalType":"uint256"},{"name":"shares","type":"uint256","indexed":false,"internalType":"uint256"}],"anonymous":false},{"type":"event","name":"Deposited","inputs":[{"name":"sender","type":"address","indexed":true,"internalType":"address"},{"name":"receiver","type":"address","indexed":true,"internalType":"address"},{"name":"assets","type":"uint256","indexed":false,"internalType":"uint256"}],"anonymous":false},{"type":"event","name":"FeesCollected","inputs":[{"name":"amount","type":"uint256","indexed":false,"internalType":"uint256"}],"anonymous":false},{"type":"event","name":"OwnershipTransferred","inputs":[{"name":"previousOwner","type":"address","indexed":true,"internalType":"address"},{"name":"newOwner","type":"address","indexed":true,"internalType":"address"}],"anonymous":false},{"type":"event","name":"Paused","inputs":[{"name":"account","type":"address","indexed":false,"internalType":"address"}],"anonymous":false},{"type":"event","name":"Transfer","inputs":[{"name":"from","type":"address","indexed":true,"internalType":"address"},{"name":"to","type":"address","indexed":true,"internalType":"address"},{"name":"value","type":"uint256","indexed":false,"internalType":"uint256"}],"anonymous":false},{"type":"event","name":"Unpaused","inputs":[{"name":"account","type":"address","indexed":false,"internalType":"address"}],"anonymous":false},{"type":"event","name":"Withdraw","inputs":[{"name":"sender","type":"address","indexed":true,"internalType":"address"},{"name":"receiver","type":"address","indexed":true,"internalType":"address"},{"name":"owner","type":"address","indexed":true,"internalType":"address"},{"name":"assets","type":"uint256","indexed":false,"internalType":"uint256"},{"name":"shares","type":"uint256","indexed":false,"internalType":"uint256"}],"anonymous":false},{"type":"event","name":"Withdrawn","inputs":[{"name":"sender","type":"address","indexed":true,"internalType":"address"},{"name":"receiver","type":"address","indexed":true,"internalType":"address"},{"name":"assets","type":"uint256","indexed":false,"internalType":"uint256"}],"anonymous":false},{"type":"error","name":"ERC20InsufficientAllowance","inputs":[{"name":"spender","type":"address","internalType":"address"},{"name":"allowance","type":"uint256","internalType":"uint256"},{"name":"needed","type":"uint256","internalType":"uint256"}]},{"type":"error","name":"ERC20InsufficientBalance","inputs":[{"name":"sender","type":"address","internalType":"address"},{"name":"balance","type":"uint256","internalType":"uint256"},{"name":"needed","type":"uint256","internalType":"uint256"}]},{"type":"error","name":"ERC20InvalidApprover","inputs":[{"name":"approver","type":"address","internalType":"address"}]},{"type":"error","name":"ERC20InvalidReceiver","inputs":[{"name":"receiver","type":"address","internalType":"address"}]},{"type":"error","name":"ERC20InvalidSender","inputs":[{"name":"sender","type":"address","internalType":"address"}]},{"type":"error","name":"ERC20InvalidSpender","inputs":[{"name":"spender","type":"address","internalType":"address"}]},{"type":"error","name":"ERC4626ExceededMaxDeposit","inputs":[{"name":"receiver","type":"address","internalType":"address"},{"name":"assets","type":"uint256","internalType":"uint256"},{"name":"max","type":"uint256","internalType":"uint256"}]},{"type":"error","name":"ERC4626ExceededMaxMint","inputs":[{"name":"receiver","type":"address","internalType":"address"},{"name":"shares","type":"uint256","internalType":"uint256"},{"name":"max","type":"uint256","internalType":"uint256"}]},{"type":"error","name":"ERC4626ExceededMaxRedeem","inputs":[{"name":"owner","type":"address","internalType":"address"},{"name":"shares","type":"uint256","internalType":"uint256"},{"name":"max","type":"uint256","internalType":"uint256"}]},{"type":"error","name":"ERC4626ExceededMaxWithdraw","inputs":[{"name":"owner","type":"address","internalType":"address"},{"name":"assets","type":"uint256","internalType":"uint256"},{"name":"max","type":"uint256","internalType":"uint256"}]},{"type":"error","name":"EnforcedPause","inputs":[]},{"type":"error","name":"ExpectedPause","inputs":[]},{"type":"error","name":"NotCompliant","inputs":[]},{"type":"error","name":"OwnableInvalidOwner","inputs":[{"name":"owner","type":"address","internalType":"address"}]},{"type":"error","name":"OwnableUnauthorizedAccount","inputs":[{"name":"account","type":"address","internalType":"address"}]},{"type":"error","name":"SafeERC20FailedOperation","inputs":[{"name":"token","type":"address","internalType":"address"}]}],"bytecode":{"object":"0x60c060405234801562000010575f80fd5b5060405162001bf338038062001bf383398101604081905262000033916200021b565b33816040518060400160405280600c81526020016b052656d697453746172204c560a41b81525060405180604001604052806004815260200163072664c560e41b8152508160039081620000889190620002e8565b506004620000978282620002e8565b5050505f80620000ad836200011060201b60201c565b9150915081620000bf576012620000c1565b805b60ff1660a05250506001600160a01b039081166080528116620000fd57604051631e4fbdf760e01b81525f600482015260240160405180910390fd5b6200010881620001a9565b5050620003b4565b5f80806200011d60405190565b6040805160048152602481019091526020810180516001600160e01b0390811663313ce56760e01b179091529192505f9182916200015f91889190620001fa16565b5090925090506200016f83604052565b8180156200017e575060203d10155b80156200018c575060ff8111155b62000199575f806200019d565b6001815b94509450505050915091565b600580546001600160a01b038381166001600160a01b0319831681179093556040519116919082907f8be0079c531659141344cd1fd0a4f28419497f9722a3daafe3b4186f6b6457e0905f90a35050565b5f805f60405f855160208701885afa92505f51915060205190509250925092565b5f602082840312156200022c575f80fd5b81516001600160a01b038116811462000243575f80fd5b9392505050565b634e487b7160e01b5f52604160045260245ffd5b600181811c908216806200027357607f821691505b6020821081036200029257634e487b7160e01b5f52602260045260245ffd5b50919050565b601f821115620002e357805f5260205f20601f840160051c81016020851015620002bf5750805b601f840160051c820191505b81811015620002e0575f8155600101620002cb565b50505b505050565b81516001600160401b038111156200030457620003046200024a565b6200031c816200031584546200025e565b8462000298565b602080601f83116001811462000352575f84156200033a5750858301515b5f19600386901b1c1916600185901b178555620003ac565b5f85815260208120601f198616915b82811015620003825788860151825594840194600190910190840162000361565b5085821015620003a057878501515f19600388901b60f8161c191681555b505060018460011b0185555b505050505050565b60805160a051611801620003f25f395f61068401525f81816102f1015281816105080152818161086c0152818161116b015261127001526118015ff3fe608060405234801561000f575f80fd5b506004361061021e575f3560e01c80637458cdfb1161012a578063ba087652116100b4578063ce96cb7711610079578063ce96cb7714610494578063d905777e146104a7578063dd62ed3e146104ba578063ef8b30f714610481578063f2fde38b146104f2575f80fd5b8063ba08765214610438578063bbb851881461044b578063c0b1eaea1461046e578063c63d75b614610333578063c6e6f59214610481575f80fd5b806395d89b41116100fa57806395d89b41146103e4578063a9059cbb146103ec578063b17acdcd146103ff578063b3d7f6b914610412578063b460af9414610425575f80fd5b80637458cdfb146103a55780638456cb59146103b85780638da5cb5b146103c057806394bf804d146103d1575f80fd5b806338d52e0f116101ab5780635c975abb1161017b5780635c975abb1461034757806360c6d8ae146103595780636e553f651461036257806370a0823114610375578063715018a61461039d575f80fd5b806338d52e0f146102ef5780633f4ba83a14610329578063402d267d146103335780634cdad50614610252575f80fd5b80630a28a477116101f15780630a28a477146102885780630ba36dcd1461029b57806318160ddd146102ba57806323b872dd146102c2578063313ce567146102d5575f80fd5b806301e1d1141461022257806306fdde031461023d57806307a2d13a14610252578063095ea7b314610265575b5f80fd5b61022a610505565b6040519081526020015b60405180910390f35b610245610594565b6040516102349190611436565b61022a610260366004611482565b610624565b6102786102733660046114b4565b610635565b6040519015158152602001610234565b61022a610296366004611482565b61064c565b61022a6102a93660046114dc565b60086020525f908152604090205481565b60025461022a565b6102786102d03660046114f5565b610658565b6102dd61067d565b60405160ff9091168152602001610234565b7f00000000000000000000000000000000000000000000000000000000000000005b6040516001600160a01b039091168152602001610234565b6103316106a8565b005b61022a6103413660046114dc565b505f1990565b600554600160a01b900460ff16610278565b61022a60075481565b61022a61037036600461152e565b6106ba565b61022a6103833660046114dc565b6001600160a01b03165f9081526020819052604090205490565b6103316107e9565b600654610311906001600160a01b031681565b6103316107fa565b6005546001600160a01b0316610311565b61022a6103df36600461152e565b61080a565b61024561083b565b6102786103fa3660046114b4565b61084a565b61033161040d366004611482565b610857565b61022a610420366004611482565b6108e0565b61022a610433366004611558565b6108ec565b61022a610446366004611558565b6109f0565b610453610a46565b60408051938452602084019290925290820152606001610234565b61033161047c3660046114dc565b610a62565b61022a61048f366004611482565b610a8c565b61022a6104a23660046114dc565b610a97565b61022a6104b53660046114dc565b610aa0565b61022a6104c8366004611591565b6001600160a01b039182165f90815260016020908152604080832093909416825291909152205490565b6103316105003660046114dc565b610abd565b5f7f00000000000000000000000000000000000000000000000000000000000000006040516370a0823160e01b81523060048201526001600160a01b0391909116906370a0823190602401602060405180830381865afa15801561056b573d5f803e3d5ffd5b505050506040513d601f19601f8201168201806040525081019061058f91906115b9565b905090565b6060600380546105a3906115d0565b80601f01602080910402602001604051908101604052809291908181526020018280546105cf906115d0565b801561061a5780601f106105f15761010080835404028352916020019161061a565b820191905f5260205f20905b8154815290600101906020018083116105fd57829003601f168201915b5050505050905090565b5f61062f825f610afa565b92915050565b5f33610642818585610b32565b5060019392505050565b5f61062f826001610b44565b5f33610665858285610b73565b610670858585610bdc565b60019150505b9392505050565b5f61058f817f000000000000000000000000000000000000000000000000000000000000000061161c565b6106b0610c39565b6106b8610c66565b565b5f6106c3610cbb565b6006546001600160a01b03161561075b5760065460405163acf0279f60e01b81523360048201526001600160a01b039091169063acf0279f90602401602060405180830381865afa15801561071a573d5f803e3d5ffd5b505050506040513d601f19601f8201168201806040525081019061073e9190611635565b61075b57604051637928610360e01b815260040160405180910390fd5b6001600160a01b0382165f9081526008602052604081208054859290610782908490611654565b909155505f90506107938484610ce6565b9050826001600160a01b0316336001600160a01b03167f8752a472e571a816aea92eec8dae9baf628e840f4929fbcc2d155e6233ff68a7866040516107da91815260200190565b60405180910390a39392505050565b6107f1610c39565b6106b85f610d01565b610802610c39565b6106b8610d52565b5f5f1961081b565b60405180910390fd5b5f610825856108e0565b905061083333858388610d95565b949350505050565b6060600480546105a3906115d0565b5f33610642818585610bdc565b61085f610c39565b6108946001600160a01b037f000000000000000000000000000000000000000000000000000000000000000016333084610e05565b8060075f8282546108a59190611654565b90915550506040518181527f860c0aa5520013080c2f65981705fcdea474d9f7c3daf954656ed5e65d692d1f9060200160405180910390a150565b5f61062f826001610afa565b5f6108f5610cbb565b6006546001600160a01b03161561098d5760065460405163acf0279f60e01b81523360048201526001600160a01b039091169063acf0279f90602401602060405180830381865afa15801561094c573d5f803e3d5ffd5b505050506040513d601f19601f820116820180604052508101906109709190611635565b61098d57604051637928610360e01b815260040160405180910390fd5b5f610999858585610e3b565b9050836001600160a01b0316336001600160a01b03167fd1c19fbcd4551a5edfb66d43d2e337c04837afda3482b42bdf569a8fccdae5fb876040516109e091815260200190565b60405180910390a3949350505050565b5f806109fb83610aa0565b905080851115610a2457828582604051632e52afbb60e21b815260040161081293929190611667565b5f610a2e86610624565b9050610a3d338686848a610e84565b95945050505050565b5f805f610a51610505565b600254600754925092509250909192565b610a6a610c39565b600680546001600160a01b0319166001600160a01b0392909216919091179055565b5f61062f825f610b44565b5f61062f610260835b6001600160a01b0381165f9081526020819052604081205461062f565b610ac5610c39565b6001600160a01b038116610aee57604051631e4fbdf760e01b81525f6004820152602401610812565b610af781610d01565b50565b5f610676610b06610505565b610b11906001611654565b610b1c5f600a611768565b600254610b299190611654565b85919085610f23565b610b3f8383836001610f65565b505050565b5f610676610b5382600a611768565b600254610b609190611654565b610b68610505565b610b29906001611654565b6001600160a01b038381165f908152600160209081526040808320938616835292905220545f19811015610bd65781811015610bc857828183604051637dc7a0d960e11b815260040161081293929190611667565b610bd684848484035f610f65565b50505050565b6001600160a01b038316610c0557604051634b637e8f60e11b81525f6004820152602401610812565b6001600160a01b038216610c2e5760405163ec442f0560e01b81525f6004820152602401610812565b610b3f838383611029565b6005546001600160a01b031633146106b85760405163118cdaa760e01b8152336004820152602401610812565b610c6e61113c565b6005805460ff60a01b191690557f5db9ee0a495bf2e6ff9c91a7834c1ba4fdd244a5e8aa4e537bd38aeae4b073aa335b6040516001600160a01b03909116815260200160405180910390a1565b600554600160a01b900460ff16156106b85760405163d93c066560e01b815260040160405180910390fd5b5f5f195f610cf385610a8c565b905061083333858784610d95565b600580546001600160a01b038381166001600160a01b0319831681179093556040519116919082907f8be0079c531659141344cd1fd0a4f28419497f9722a3daafe3b4186f6b6457e0905f90a35050565b610d5a610cbb565b6005805460ff60a01b1916600160a01b1790557f62e78cea01bee320cd4e420270b5ea74000d11b0c9f74754ebdbfc544b05a258610c9e3390565b610d9f8483611166565b610da98382611196565b826001600160a01b0316846001600160a01b03167fdcbc1c05240f31ff3ad067ef1ee35ce4997762752e3a095284754544f4c709d78484604051610df7929190918252602082015260400190565b60405180910390a350505050565b610e138484848460016111ca565b610bd657604051635274afe760e01b81526001600160a01b0385166004820152602401610812565b5f80610e4683610a97565b905080851115610e6f57828582604051633fa733bb60e21b815260040161081293929190611667565b5f610e798661064c565b9050610a3d33868689855b826001600160a01b0316856001600160a01b031614610ea857610ea8838683610b73565b610eb28382611237565b610ebc848361126b565b826001600160a01b0316846001600160a01b0316866001600160a01b03167ffbde797d201c681b91056529119e0b02407c7bb96a4a2c75c01fc9667232c8db8585604051610f14929190918252602082015260400190565b60405180910390a45050505050565b5f610f50610f3083611296565b8015610f4b57505f8480610f4657610f46611776565b868809115b151590565b610f5b8686866112c2565b610a3d9190611654565b6001600160a01b038416610f8e5760405163e602df0560e01b81525f6004820152602401610812565b6001600160a01b038316610fb757604051634a1406b160e11b81525f6004820152602401610812565b6001600160a01b038085165f9081526001602090815260408083209387168352929052208290558015610bd657826001600160a01b0316846001600160a01b03167f8c5be1e5ebec7d5bd14f71427d1e84f3dd0314c0f7b2291e5b200ac8c7c3b92584604051610df791815260200190565b6001600160a01b038316611053578060025f8282546110489190611654565b909155506110b09050565b6001600160a01b0383165f90815260208190526040902054818110156110925783818360405163391434e360e21b815260040161081293929190611667565b6001600160a01b0384165f9081526020819052604090209082900390555b6001600160a01b0382166110cc576002805482900390556110ea565b6001600160a01b0382165f9081526020819052604090208054820190555b816001600160a01b0316836001600160a01b03167fddf252ad1be2c89b69c2b068fc378daa952ba7f163c4a11628f55a4df523b3ef8360405161112f91815260200190565b60405180910390a3505050565b600554600160a01b900460ff166106b857604051638dfc202b60e01b815260040160405180910390fd5b6111927f0000000000000000000000000000000000000000000000000000000000000000833084610e05565b5050565b6001600160a01b0382166111bf5760405163ec442f0560e01b81525f6004820152602401610812565b6111925f8383611029565b6040516323b872dd60e01b5f8181526001600160a01b038781166004528616602452604485905291602083606481808c5af1925060015f5114831661122657838315161561121a573d5f823e3d81fd5b5f883b113d1516831692505b604052505f60605295945050505050565b6001600160a01b03821661126057604051634b637e8f60e11b81525f6004820152602401610812565b611192825f83611029565b6111927f00000000000000000000000000000000000000000000000000000000000000008383611372565b5f60028260038111156112ab576112ab61178a565b6112b5919061179e565b60ff166001149050919050565b5f805f6112cf86866113a7565b91509150815f036112f3578381816112e9576112e9611776565b0492505050610676565b81841161130a5761130a60038515026011186113c3565b5f848688095f868103871696879004966002600389028118808a02820302808a02820302808a02820302808a02820302808a02820302808a02909103029181900381900460010185841190960395909502919093039390930492909217029150509392505050565b61137f83838360016113d4565b610b3f57604051635274afe760e01b81526001600160a01b0384166004820152602401610812565b5f805f1983850993909202808410938190039390930393915050565b634e487b715f52806020526024601cfd5b60405163a9059cbb60e01b5f8181526001600160a01b038616600452602485905291602083604481808b5af1925060015f5114831661142a57838315161561141e573d5f823e3d81fd5b5f873b113d1516831692505b60405250949350505050565b5f602080835283518060208501525f5b8181101561146257858101830151858201604001528201611446565b505f604082860101526040601f19601f8301168501019250505092915050565b5f60208284031215611492575f80fd5b5035919050565b80356001600160a01b03811681146114af575f80fd5b919050565b5f80604083850312156114c5575f80fd5b6114ce83611499565b946020939093013593505050565b5f602082840312156114ec575f80fd5b61067682611499565b5f805f60608486031215611507575f80fd5b61151084611499565b925061151e60208501611499565b9150604084013590509250925092565b5f806040838503121561153f575f80fd5b8235915061154f60208401611499565b90509250929050565b5f805f6060848603121561156a575f80fd5b8335925061157a60208501611499565b915061158860408501611499565b90509250925092565b5f80604083850312156115a2575f80fd5b6115ab83611499565b915061154f60208401611499565b5f602082840312156115c9575f80fd5b5051919050565b600181811c908216806115e457607f821691505b60208210810361160257634e487b7160e01b5f52602260045260245ffd5b50919050565b634e487b7160e01b5f52601160045260245ffd5b60ff818116838216019081111561062f5761062f611608565b5f60208284031215611645575f80fd5b81518015158114610676575f80fd5b8082018082111561062f5761062f611608565b6001600160a01b039390931683526020830191909152604082015260600190565b600181815b808511156116c257815f19048211156116a8576116a8611608565b808516156116b557918102915b93841c939080029061168d565b509250929050565b5f826116d85750600161062f565b816116e457505f61062f565b81600181146116fa576002811461170457611720565b600191505061062f565b60ff84111561171557611715611608565b50506001821b61062f565b5060208310610133831016604e8410600b8410161715611743575081810a61062f565b61174d8383611688565b805f190482111561176057611760611608565b029392505050565b5f61067660ff8416836116ca565b634e487b7160e01b5f52601260045260245ffd5b634e487b7160e01b5f52602160045260245ffd5b5f60ff8316806117bc57634e487b7160e01b5f52601260045260245ffd5b8060ff8416069150509291505056fea26469706673582212203f62c5614bfadfa4fea6f3b9a349069ac1c3703fa0a2dd8394ddc07506f28bb364736f6c63430008180033","linkReferences":{}},"methodIdentifiers":{"allowance(address,address)":"dd62ed3e","approve(address,uint256)":"095ea7b3","asset()":"38d52e0f","balanceOf(address)":"70a08231","collectFees(uint256)":"b17acdcd","complianceGate()":"7458cdfb","convertToAssets(uint256)":"07a2d13a","convertToShares(uint256)":"c6e6f592","decimals()":"313ce567","deposit(uint256,address)":"6e553f65","getPoolStats()":"bbb85188","maxDeposit(address)":"402d267d","maxMint(address)":"c63d75b6","maxRedeem(address)":"d905777e","maxWithdraw(address)":"ce96cb77","mint(uint256,address)":"94bf804d","name()":"06fdde03","owner()":"8da5cb5b","pause()":"8456cb59","paused()":"5c975abb","previewDeposit(uint256)":"ef8b30f7","previewMint(uint256)":"b3d7f6b9","previewRedeem(uint256)":"4cdad506","previewWithdraw(uint256)":"0a28a477","redeem(uint256,address,address)":"ba087652","renounceOwnership()":"715018a6","setComplianceGate(address)":"c0b1eaea","symbol()":"95d89b41","totalAssets()":"01e1d114","totalFeesCollected()":"60c6d8ae","totalSupply()":"18160ddd","transfer(address,uint256)":"a9059cbb","transferFrom(address,address,uint256)":"23b872dd","transferOwnership(address)":"f2fde38b","unpause()":"3f4ba83a","userDeposits(address)":"0ba36dcd","withdraw(uint256,address,address)":"b460af94"},"id":44}