{"abi":[{"type":"constructor","inputs":[{"name":"treasury_","type":"address","internalType":"address"},{"name":"liquidityPool_","type":"address","internalType":"address"}],"stateMutability":"nonpayable"},{"type":"function","name":"BPS_DENOMINATOR","inputs":[],"outputs":[{"name":"","type":"uint256","internalType":"uint256"}],"stateMutability":"view"},{"type":"function","name":"FEE_BPS","inputs":[],"outputs":[{"name":"","type":"uint256","internalType":"uint256"}],"stateMutability":"view"},{"type":"function","name":"calculateFee","inputs":[{"name":"amount","type":"uint256","internalType":"uint256"}],"outputs":[{"name":"","type":"uint256","internalType":"uint256"}],"stateMutability":"pure"},{"type":"function","name":"distributeFee","inputs":[{"name":"token","type":"address","internalType":"address"},{"name":"feeAmount","type":"uint256","internalType":"uint256"}],"outputs":[],"stateMutability":"nonpayable"},{"type":"function","name":"liquidityPool","inputs":[],"outputs":[{"name":"","type":"address","internalType":"address"}],"stateMutability":"view"},{"type":"function","name":"lpShare","inputs":[],"outputs":[{"name":"","type":"uint256","internalType":"uint256"}],"stateMutability":"view"},{"type":"function","name":"owner","inputs":[],"outputs":[{"name":"","type":"address","internalType":"address"}],"stateMutability":"view"},{"type":"function","name":"renounceOwnership","inputs":[],"outputs":[],"stateMutability":"nonpayable"},{"type":"function","name":"setLiquidityPool","inputs":[{"name":"lp_","type":"address","internalType":"address"}],"outputs":[],"stateMutability":"nonpayable"},{"type":"function","name":"setShares","inputs":[{"name":"treasury_","type":"uint256","internalType":"uint256"},{"name":"lp_","type":"uint256","internalType":"uint256"}],"outputs":[],"stateMutability":"nonpayable"},{"type":"function","name":"setTreasury","inputs":[{"name":"treasury_","type":"address","internalType":"address"}],"outputs":[],"stateMutability":"nonpayable"},{"type":"function","name":"totalFeesDistributed","inputs":[],"outputs":[{"name":"","type":"uint256","internalType":"uint256"}],"stateMutability":"view"},{"type":"function","name":"transferOwnership","inputs":[{"name":"newOwner","type":"address","internalType":"address"}],"outputs":[],"stateMutability":"nonpayable"},{"type":"function","name":"treasury","inputs":[],"outputs":[{"name":"","type":"address","internalType":"address"}],"stateMutability":"view"},{"type":"function","name":"treasuryShare","inputs":[],"outputs":[{"name":"","type":"uint256","internalType":"uint256"}],"stateMutability":"view"},{"type":"event","name":"FeeDistributed","inputs":[{"name":"token","type":"address","indexed":true,"internalType":"address"},{"name":"total","type":"uint256","indexed":false,"internalType":"uint256"},{"name":"treasuryPart","type":"uint256","indexed":false,"internalType":"uint256"},{"name":"lpPart","type":"uint256","indexed":false,"internalType":"uint256"}],"anonymous":false},{"type":"event","name":"OwnershipTransferred","inputs":[{"name":"previousOwner","type":"address","indexed":true,"internalType":"address"},{"name":"newOwner","type":"address","indexed":true,"internalType":"address"}],"anonymous":false},{"type":"error","name":"OwnableInvalidOwner","inputs":[{"name":"owner","type":"address","internalType":"address"}]},{"type":"error","name":"OwnableUnauthorizedAccount","inputs":[{"name":"account","type":"address","internalType":"address"}]},{"type":"error","name":"ReentrancyGuardReentrantCall","inputs":[]}],"bytecode":{"object":"0x608060405261138860035561138860045534801561001b575f80fd5b50604051610aa1380380610aa183398101604081905261003a91610128565b338061005f57604051631e4fbdf760e01b81525f600482015260240160405180910390fd5b610068816100be565b5060017f9b779b17422d0df92223018b32b4d1fa46e071723d6817e2486d003becc55f0055600180546001600160a01b039384166001600160a01b03199182161790915560028054929093169116179055610159565b5f80546001600160a01b038381166001600160a01b0319831681178455604051919092169283917f8be0079c531659141344cd1fd0a4f28419497f9722a3daafe3b4186f6b6457e09190a35050565b80516001600160a01b0381168114610123575f80fd5b919050565b5f8060408385031215610139575f80fd5b6101428361010d565b91506101506020840161010d565b90509250929050565b61093b806101665f395ff3fe608060405234801561000f575f80fd5b50600436106100f0575f3560e01c80638582c91311610093578063e1a4521811610063578063e1a45218146101c5578063ebc38ab0146101ce578063f0f44260146101d7578063f2fde38b146101ea575f80fd5b80638582c913146101915780638da5cb5b1461019a57806399a5d747146101aa578063bf333f2c146101bd575f80fd5b806361d027b3116100ce57806361d027b31461012f578063665a11ca1461015f578063715018a6146101725780637796ff371461017a575f80fd5b806301877020146100f45780632aca3e7d14610109578063448e520f1461011c575b5f80fd5b6101076101023660046107f7565b6101fd565b005b610107610117366004610817565b610271565b61010761012a366004610837565b6102d2565b600154610142906001600160a01b031681565b6040516001600160a01b0390911681526020015b60405180910390f35b600254610142906001600160a01b031681565b610107610613565b61018360035481565b604051908152602001610156565b61018360055481565b5f546001600160a01b0316610142565b6101836101b836600461085f565b610626565b610183601e81565b61018361271081565b61018360045481565b6101076101e53660046107f7565b610645565b6101076101f83660046107f7565b6106b4565b6102056106f1565b6001600160a01b03811661024f5760405162461bcd60e51b815260206004820152600c60248201526b5a65726f206164647265737360a01b60448201526064015b60405180910390fd5b600280546001600160a01b0319166001600160a01b0392909216919091179055565b6102796106f1565b612710610286828461088a565b146102c75760405162461bcd60e51b815260206004820152601160248201527004d7573742073756d20746f20313030303607c1b6044820152606401610246565b600391909155600455565b6102da61071d565b5f81116103215760405162461bcd60e51b81526020600482015260156024820152740666565416d6f756e74206d757374206265203e203605c1b6044820152606401610246565b6040516323b872dd60e01b8152336004820152306024820152604481018290526001600160a01b038316906323b872dd906064016020604051808303815f875af1158015610371573d5f803e3d5ffd5b505050506040513d601f19601f82011682018060405250810190610395919061089d565b6103d75760405162461bcd60e51b81526020600482015260136024820152721d1c985b9cd9995c919c9bdb4819985a5b1959606a1b6044820152606401610246565b5f612710600354836103e991906108bc565b6103f391906108d3565b90505f61040082846108f2565b60015460405163a9059cbb60e01b81526001600160a01b0391821660048201526024810185905291925085169063a9059cbb906044016020604051808303815f875af1158015610452573d5f803e3d5ffd5b505050506040513d601f19601f82011682018060405250810190610476919061089d565b6104c25760405162461bcd60e51b815260206004820152601b60248201527f7472616e7366657220746f207472656173757279206661696c656400000000006044820152606401610246565b60025460405163a9059cbb60e01b81526001600160a01b039182166004820152602481018390529085169063a9059cbb906044016020604051808303815f875af1158015610512573d5f803e3d5ffd5b505050506040513d601f19601f82011682018060405250810190610536919061089d565b6105825760405162461bcd60e51b815260206004820152601760248201527f7472616e7366657220746f20706f6f6c206661696c65640000000000000000006044820152606401610246565b8260055f828254610593919061088a565b909155505060408051848152602081018490529081018290526001600160a01b038516907fe9c43263c9c0582afb798a6d3aed85c88c73506aac8a42e70258d64e3ae1d33a9060600160405180910390a2505061060f60017f9b779b17422d0df92223018b32b4d1fa46e071723d6817e2486d003becc55f0055565b5050565b61061b6106f1565b6106245f61074b565b565b5f612710610635601e846108bc565b61063f91906108d3565b92915050565b61064d6106f1565b6001600160a01b0381166106925760405162461bcd60e51b815260206004820152600c60248201526b5a65726f206164647265737360a01b6044820152606401610246565b600180546001600160a01b0319166001600160a01b0392909216919091179055565b6106bc6106f1565b6001600160a01b0381166106e557604051631e4fbdf760e01b81525f6004820152602401610246565b6106ee8161074b565b50565b5f546001600160a01b031633146106245760405163118cdaa760e01b8152336004820152602401610246565b61072561079a565b60027f9b779b17422d0df92223018b32b4d1fa46e071723d6817e2486d003becc55f0055565b5f80546001600160a01b038381166001600160a01b0319831681178455604051919092169283917f8be0079c531659141344cd1fd0a4f28419497f9722a3daafe3b4186f6b6457e09190a35050565b7f9b779b17422d0df92223018b32b4d1fa46e071723d6817e2486d003becc55f005460020361062457604051633ee5aeb560e01b815260040160405180910390fd5b80356001600160a01b03811681146107f2575f80fd5b919050565b5f60208284031215610807575f80fd5b610810826107dc565b9392505050565b5f8060408385031215610828575f80fd5b50508035926020909101359150565b5f8060408385031215610848575f80fd5b610851836107dc565b946020939093013593505050565b5f6020828403121561086f575f80fd5b5035919050565b634e487b7160e01b5f52601160045260245ffd5b8082018082111561063f5761063f610876565b5f602082840312156108ad575f80fd5b81518015158114610810575f80fd5b808202811582820484141761063f5761063f610876565b5f826108ed57634e487b7160e01b5f52601260045260245ffd5b500490565b8181038181111561063f5761063f61087656fea264697066735822122023db0eaf2388cee66c7f5c5fccaea188e305418384e8728df22231e2ed6a862264736f6c63430008180033","linkReferences":{}},"methodIdentifiers":{"BPS_DENOMINATOR()":"e1a45218","FEE_BPS()":"bf333f2c","calculateFee(uint256)":"99a5d747","distributeFee(address,uint256)":"448e520f","liquidityPool()":"665a11ca","lpShare()":"ebc38ab0","owner()":"8da5cb5b","renounceOwnership()":"715018a6","setLiquidityPool(address)":"01877020","setShares(uint256,uint256)":"2aca3e7d","setTreasury(address)":"f0f44260","totalFeesDistributed()":"8582c913","transferOwnership(address)":"f2fde38b","treasury()":"61d027b3","treasuryShare()":"7796ff37"},"id":47}